:020000040000FA
:1000000018040020690D00006D0D00006F0D000048
:1000100000000000000000000000000000000000E0
:10002000000000000000000000000000710D000052
:100030000000000000000000730D0000750D0000BE
:10004000D9090000E1090000E9090000F1090000F8
:100050000000000000000000770D0000770D000098
:10006000770D000000000000770D00000000000088
:10007000770D0000000000001F0A0000410A000088
:10008000630A0000850A0000770D0000770D00006C
:10009000770D0000770D0000770D0000F9090000D2
:1000A000770D000000000000770D0000770D0000C4
:1000B000770D000000000000770D0000770D0000B4
:1000C0000348854600F066FE00480047050500002D
:1000D00018040020FA4C20680825A84320602068F6
:1000E000A8432060F74EF84FA0682843A060304630
:1000F00000F0ECFCA068A843A060384600F0E6FCE5
:10010000F2E7F8B5411ECCB2002813D0EC4DED4F0C
:100110000826A8683043A860384600F0D7FCA868D5
:10012000B043A860E84800F0D1FC2046641EE4B269
:100130000028EED1F8BDE5490022CA60FF20086022
:100140000862E349CA6008600862704710B5FFF7AB
:10015000F2FF7D20C00000F0B9FCDC484068C043DD
:10016000C1B2DB484068C043C908400840010143B0
:10017000C8B210BD844696460022D64CD2432262B5
:10018000D54DEE6810273E43EE60EE6820273E43D3
:10019000EE60A06900090001A061D04FA760D04DBA
:1001A000A5602668082006432660A0694006FCD5A5
:1001B000A7602846A5602568302635432560A760DE
:1001C000A06020684008400020600020012902D083
:1001D000002902D002E0226200E02062614600298C
:1001E00005D1216A19432162BE49086130BF7046BA
:1001F000002800D0FEE7FEE7BB480F2141601E212A
:100200000160E12101607047B248416942159143A4
:1002100041614169490A4902EE3141614169032264
:10022000920211434161AD498160AD49816001682D
:100230000422114301604169C904FCD57047A648F6
:10024000C16810221143C160C16820221143C160FE
:10025000A048A2498160A249816001680822114337
:10026000016081694906FCD570479A489B498160C5
:10027000FF2189314160016AC201114301629B483B
:1002800059218160026808231A430260C16023215A
:10029000016131218161062141611221C1619921F0
:1002A00001620021416281627F21C1620168C90847
:1002B000C900491C016001684022114301600168C6
:1002C000202211430160426880210A434260026893
:1002D0000A43026041680122114341604168890775
:1002E000FCD5416849084900416041688907FCD450
:1002F00080497F484860704701227F495004086068
:100300007E490868FF231B02984393031843086043
:100310007048016A4315194301627948C16A302364
:1003200099432031C162C16A03151943C162C16A90
:100330009143C162C16A0906FCD5072149034162A4
:100340000162C16A02231943C162C16A1143C162D9
:10035000C16A1143C162704700225E49D2430A62FA
:100360001F38072828D202007A441279921897443D
:10037000030D13181B1E2100FFF761FF0020FFF77C
:10038000BBFFFFF772FFFFF737FF15E0FFF757FFDF
:100390000020FFF7B1FF0FE0FFF751FFFFF765FF08
:1003A0000AE0FFF74CFF07E0FFF72EFF04E0FFF73E
:1003B00023FF01E0002008624A490420086130BFA1
:1003C00030BFFEE7434DEC68032676029B07B4433B
:1003D0005B0D1C43EC60EB685B059B0F032B05D1A9
:1003E000EB685B0A5B02FF336733EB60EB685B052E
:1003F0009B0F022B05D1EB685B0A5B02FF336A336C
:10040000EB60EB685B059B0F012B05D1EB685B0A8A
:100410005B02FF336833EB60EB685B059B0F05D134
:10042000EB685B0A5B02FF336633EB602B4EAE601A
:100430002B4FAF602B68012423432B60EB681B0517
:10044000FCD5AE60AF602B683024A3432B60002343
:10045000DB432B620024012902D0002902D002E0F4
:100460002B6200E02C62002803D0012A05D000BFD7
:10047000FEE71C48046130BFFEE7FEE730B41548D4
:1004800016498160164981604168821511434160B7
:100490000B4A0020D060104BD8600C4DE8600C4C2B
:1004A000E060FF211160196029602160106218620C
:1004B00028622062516259626962616230BC704791
:1004C000000D0240409C0000400D0300800D0240E2
:1004D000C00D024000200040400D02405A5A00006A
:1004E000A5A5000000ED00E0800C004000140040D5
:1004F000F86F00004020004080E200E010E400E0DF
:10050000400C004000219E48C94301629D494A6851
:1005100008231A434A609C494A6BD209D2013132FE
:100520004A63C168032252021143C160C168490A8B
:100530004902FF316731C16000F0CEFAFFF79EFF3C
:100540007D20C00000F0C2FA00F09CFB01220323D2
:1005500011461046FFF736FF84468C4CE0680222B5
:100560001043E060E06804263043E0608449086995
:100570000F2318430861086930273843086184480D
:100580008860844D8D600B6813430B60824B1A6A40
:1005900032431A620A695206FCD588608D600A6887
:1005A000BA4310320A6088608D60086840084000D5
:1005B00008600020C04308626046002802D17749E5
:1005C000086130BF6068000700D4FEE7FEE76C49B1
:1005D0004A694B159A434A614A69920504D44A69AB
:1005E000520A5202EE324A614A69920504D54A69BA
:1005F000520A5202EE324A61654C8C60654B8B6048
:100600000A6804252A430A604A69D204FCD58C6032
:100610008B600A683025AA4320320A600022D24348
:100620000A628C608B600A68520852000A605C495A
:100630000A6810239A430A605A4A032111615A49F1
:100640004A68AB019A434A604A6801235B031A4334
:100650004A60002802D15149086130BFFEE7704767
:10066000704752494868002801D08A68026048886B
:100670004F4A801803D0102802D130BF00E020BFBD
:100680000020488048607047F0B48C464178474C61
:100690000025202907D0282916D029293AD06570AD
:1006A0007120F0BC70478178C078090201436180F5
:1006B0004048814202D04048814201D1002000E000
:1006C00071201D70F0BC70478178427909060A4399
:1006D000C17806790904360231430A438179467AA2
:1006E00009060E43C1790F04017A09020F433E4304
:1006F000817AC07A0902014360460A2806D0626006
:10070000A66061801D700020F0BC70471660658097
:100710006560F7E78478417924062143C47800793D
:1007200024040002044321430868010E1170010CE7
:100730005170010A9170D070042018700020F0BC34
:10074000704710B519491D4800F08FF800280ED1E8
:100750001A48164C007810280AD0002060707020CB
:1007600002466178164800F001F9FFF77AFF10BDE4
:10077000144B134A21781148FFF786FFF0E7000079
:10078000002000404020004040240040000D024076
:100790005A5A0000A5A500000000024000ED00E04C
:1007A000800D0240800C0240000F0240000000203B
:1007B000E040FFFF30BF000020BF00001400002019
:1007C0001401002001000020814801680422114327
:1007D0000160016808221143016001681022114381
:1007E00001607C4801682022914301600168402338
:1007F0009943016081689143816081689943816078
:100800007047F0B400228027714D724E40236C680F
:10081000240708D46C68640702D4F0BC61207047D8
:100820006C682407F6D549086C68E40601D539439D
:1008300001E04906490EB4681C43B4606C682407A3
:1008400008D56C68640702D4F0BC612070476C68FE
:100850002407F6D4B4689C43B460521CD2B2082A70
:10086000D5D30170F0BC00207047F8B504460D46A2
:10087000584FB86840218843B860554E70684007AB
:1008800001D45120F8BD002028706846FFF7B9FF59
:100890000146080000D0F8BD684600782870684618
:1008A0000078002811D02046FFF7ABFF0146080072
:1008B00003D0002028700846F8BD641C6A461078F2
:1008C000401EC0B200900028EDD17068000707D428
:1008D0007068400701D46120F8BD70680007F7D543
:1008E000B86840221043B8607068000707D5706888
:1008F000400701D46120F8BD70680007F7D40846AE
:10090000F8BD70B400222026314B324C4025596886
:10091000090708D45968490702D470BC60207047A1
:1009200059680907F6D5C10703D0A1683143A16012
:1009300002E0A168B143A1604008A1682943A16019
:100940005968090708D55968490702D470BC602066
:10095000704759680907F6D4A168A943A160521CE1
:10096000D2B2082AD3D370BC00207047F7B5054631
:100970000C46184FB96840208143B960A01CC0B232
:10098000FFF7BFFF064630000CD1002C0AD02878B4
:10099000FFF7B7FF0646002E04D16D1C641EE4B2BB
:1009A000002CF4D1002E02D19020FFF7AAFF002ED8
:1009B00002D10298FFF7A5FFB96840208143B960D2
:1009C000B86820218843B860304603B0F0BD00000D
:1009D000C00D0240800D024033490020086170477D
:1009E0003249002008617047314900200861704792
:1009F00030490020086170472F4841680822914320
:100A000041602E4841681022C906002903DA816836
:100A10009143816070478168114381607047284924
:100A200000204861274841684A070421002A03DA68
:100A300082688A438260704782680A438260704796
:100A40001F49002048631F484168CA061021002A38
:100A500003DA82688A438260704782680A43826050
:100A60007047194900204861164841688A062021CC
:100A7000002A03DA82688A438260704782680A43E8
:100A8000826070471049002048630C484168CA06DC
:100A90001021002A03DA82688A43826070478268E4
:100AA0000A43826070470000000E0240400E024080
:100AB000800E0240C00E024000140040400D024073
:100AC000000C0040C00D0240400C0040002802D045
:100AD000401E0028FCD1704710B5042000F03AF900
:100AE0001948182101701949418010BD164900228A
:100AF0008A5617495043486100238B6108690122D7
:100B0000104308610869C20701D0C003FAD508691B
:100B10004008400008618B6170470B4902228A5EE1
:100B20000B495043486100238B610869012210433F
:100B300008610869C20701D0C003FAD508694008F6
:100B4000400008618B6170470C000020C05D000010
:100B500000E000E010B501210C07204600F0EBF8A2
:100B60000021204600F0E7F810BD70B400230125F5
:100B7000FF3001302A469A400C68144094423BD121
:100B80000C79012C01D0022C08D1C46A9443C462B0
:100B9000C46A8E799E40B6B23443C4620C79002C8C
:100BA00006D0012C0BD0022C13D0032C11D10DE058
:100BB000C4689443C46004681443046009E0C468D2
:100BC0009443C46004689443046002E0C46814431E
:100BD000C460CC79012C02D0022C07D00CE0046A4E
:100BE00094430462046A1443046205E0446A944333
:100BF0004462446A144344625B1C082BBAD370BC41
:100C000070473F49016000210171022242718171E8
:100C1000C1717047FF300130002A03D082680A4357
:100C20008260704782688A4382607047FF3001307B
:100C30008160704710B40023324CA04203D18C1E57
:100C4000072C1DD214E0304CA04204D10C46103CBD
:100C5000112C15D20CE02D4CA04202D108290FD343
:100C600006E02B4CA04203D1012909D0802907D0EE
:100C7000CC0703D149085B1CCC07FBD0990042503C
:100C800010BC704782B00121080700F049F8082025
:100C9000009001246846047100258571194E69464B
:100CA0003046FFF762FF102000906846047185719E
:100CB000164C69462046FFF758FF032210212046B4
:100CC000FFF7B8FF134948680322920210434860B7
:100CD000486801225203104348603446012208212B
:100CE0002046FFF797FF6420FFF717FF0022082137
:100CF0002046FFF78FFF6420FFF70FFFEEE70000AD
:100D0000FFFF0000000C0240400C0240800C02403B
:100D1000C00C0240000F02400D490C4808627047A9
:100D20000B4A002903D0116A014311627047116A0E
:100D3000814311627047064A002903D0916A01433A
:100D400091627047916A814391627047000080C050
:100D500000200040042804D1024801690422114304
:100D60000161704700E000E003480047FEE7FEE74E
:100D7000FEE7FEE7FEE7FEE7C10000000449034886
:100D800008607047024901480860704740787D015B
:100D900010000020064C0125064E05E0E36807CC54
:100DA0002B430C3C98471034B442F7D3FFF78CF92F
:100DB000D80D0000F80D000002E008C8121F08C19D
:100DC000002AFAD170477047002001E001C1121FCC
:100DD000002AFBD170470000F80D00000000002041
:100DE00014000000B80D00000C0E000014000020DC
:100DF00004040000C80D0000000000000000000016
:0C0E0000000000000000000040787D01B0
:04000005000000C136
:00000001FF
