:020000040000FA
:1000000008010020C9000000DD000000DF00000042
:1000100000000000000000000000000000000000E0
:10002000000000000000000000000000E1000000EF
:100030000000000000000000E3000000E5000000F8
:10004000E7000000E7000000E7000000E700000014
:10005000E7000000E7000000E7000000E700000004
:10006000E7000000E7000000E7000000E7000000F4
:10007000E7000000E7000000E7000000E7000000E4
:10008000E7000000E7000000E7000000E7000000D4
:100090000000000000000000000000000000000060
:1000A0000000000000000000000000000000000050
:1000B000E700000000000000E7000000E70000008B
:1000C00040BA7047C0BA70470A4880470A480B498F
:1000D0000B4A0C4B0160136000BF00BFFEE7FEE758
:1000E000FEE7FEE7FEE7FEE707480849064A084B39
:1000F000704700001D0100004C200040010000007E
:100100000CED00E00400FA050800002008010020C2
:10011000080000200648074908607047FF2006498C
:1001200008610648064948634010086370470000AC
:1001300040787D010000002040200040FFFF0100CA
:1001400000000240704770477047000040787D0112
:020000040000FA
:080DF8005A5A5A5AA5A5A5A5F7
:0400000500000000F7
:00000001FF
