:020000040000FA
:1000000010040020F90A0000FD0A0000FF0A0000A9
:1000100000000000000000000000000000000000E0
:10002000000000000000000000000000010B0000C4
:100030000000000000000000030B0000050B0000A2
:10004000050A00000D0A0000150A00001D0A000044
:100050000000000000000000070B0000070B00007C
:10006000070B000000000000070B0000000000006C
:10007000070B0000000000004B0A00006D0A0000A2
:100080008F0A0000B10A0000070B0000070B0000F8
:10009000070B0000070B0000070B0000250A0000FB
:1000A000070B000000000000070B0000070B00001A
:1000B000070B000000000000070B0000070B00000A
:1000C0000348854600F02EFD004800474305000028
:1000D00010040020002802D0401E0028FCD17047E8
:1000E000FE49086808239843086008689843086038
:1000F000FB4CFC4D8A681A438A602046FFF7EAFFF2
:100100008868984388602846FFF7E4FFF2E770B5F7
:10011000411EC9B2002814D0F04AF14DF14E082416
:100120009368234393602846FFF7D4FF9068A04369
:1001300090603046FFF7CEFF0846491EC9B200283E
:10014000EED170BDE8490022CA60FF200860086255
:10015000E649CA6008600862704700B5FFF7F2FF21
:100160007D20C000FFF7B6FFDF484068C043C1B242
:10017000DE484068C043C908400840010143C8B296
:1001800000BD844696460022D94CD2432262D94D06
:10019000EE6810273E43EE60EE6820273E43EE6097
:1001A000A06900090001A061D34FA760D34DA560ED
:1001B0002668082006432660A0694006FCD5A76093
:1001C0002846A5602568302635432560A760A060D5
:1001D00020684008400020600020012902D000294A
:1001E00002D002E0226200E020626146002905D1CF
:1001F000216A19432162C249086130BF7046002854
:1002000000D0FEE7FEE7BF480F2141601E210160DC
:10021000E12101607047B64841694215914341614F
:100220004169490A4902E731416141690322920269
:1002300011434161B0498160B04981600168042285
:10024000114301604169C904FCD57047A948C168E0
:1002500010221143C160C16820221143C160A4482B
:10026000A5498160A54981600168082211430160A8
:1002700081694906FCD570479D489F498160FF21EF
:1002800089314160016AC201114301629E485921CE
:100290008160026808231A430260C1602321016162
:1002A00031218161062141611221C16199210162DF
:1002B0000021416281627F21C1620168C908C900D1
:1002C000491C01600168402211430160016820223D
:1002D00011430160426880210A43426002680A4378
:1002E0000260416801221143416041688907FCD5E1
:1002F000416849084900416041688907FCD4844944
:10030000824848607047012282495004086082494F
:100310000868FF231B02984393031843086074483E
:10032000016A4315194301627C48C16A302399432D
:100330002031C162C16A03151943C162C16A914388
:10034000C162C16A0906FCD5072149034162016205
:10035000C16A02231943C162C16A1143C162C16A01
:100360001143C162704700226149D2430A621F38BB
:10037000072828D202007A44127992189744030D74
:1003800013181B1E2100FFF761FF0020FFF7BBFFC2
:10039000FFF772FFFFF737FF15E0FFF757FF002069
:1003A000FFF7B1FF0FE0FFF751FFFFF765FF0AE02E
:1003B000FFF74CFF07E0FFF72EFF04E0FFF723FFF6
:1003C00001E0002008624E490420086130BF30BFC0
:1003D000FEE7474CE568032676029B07B5435B0DB5
:1003E0001D43E560E3685B059B0F032B05D1E368C4
:1003F0005B0A5B02FF335D33E360E3685B059B0FE1
:10040000022B05D1E3685B0A5B02FF336433E360D0
:10041000E3685B059B0F012B05D1E3685B0A5B0278
:10042000FF336433E360E3685B059B0F05D1E3684A
:100430005B0A5B02FF335D33E3602F4DA5602F4EF7
:10044000A660236801273B432360E3681B05FCD5B6
:10045000A560A66023683025AB432360224B1D684E
:100460001026B5431D602E4D03232B612D4B5D6877
:100470000326B60235435D605D6801267603354389
:100480005D600023DB4323620025012902D000299F
:1004900002D002E0236200E02562002803D0012A96
:1004A00005D000BFFEE71648056130BFFEE7FEE756
:1004B00030B40F481049816010498160416882154D
:1004C00011434160054A0020D0600A4BD860064DB8
:1004D000E860064CE060FF21116025E0000D02405D
:1004E000409C0000400D0300800D0240C00D024002
:1004F00000200040400D02405A5A0000A5A500000F
:1005000000ED00E0800C004000140040F86F000097
:100510004020004080E200E010E400E0400C004099
:10052000800C0240000F02401960296021601062B7
:10053000186228622062516259626962616230BC4D
:10054000704700209949C0430862994841680822D1
:10055000114341609748416B7F231943416396489B
:10056000816891438160016891430160FFF7A0FFBA
:100570007D20C000FFF7AEFD012203231146104687
:10058000FFF727FF84468C4CE06802221043E060AE
:10059000E06804263043E060844908690F2318436B
:1005A0000861086930273843086184488860844DB1
:1005B0008D600B6813430B60824B1A6A32431A62D8
:1005C0000A695206FCD588608D600A68BA43103209
:1005D0000A6088608D60086840084000086000205C
:1005E000C04308626046002802D17749086130BFE5
:1005F0006068000700D4FEE7FEE76C494A694B15C6
:100600009A434A614A69920504D44A69520A5202DD
:10061000E7324A614A69920504D54A69520A520290
:10062000E8324A61654C8C60654B8B600A68042532
:100630002A430A604A69D204FCD58C608B600A6840
:100640003025AA4320320A600022D2430A628C601D
:100650008B600A68520852000A605C490A681023DD
:100660009A430A605A4A032111615A494A68AB0108
:100670009A434A604A6801235B031A434A60002890
:1006800002D15149086130BFFEE7704770475249B7
:100690004868002801D08A68026048884F4A80185C
:1006A00003D0102802D130BF00E020BF00204880D6
:1006B00048607047F0B48C464178474C00252029AB
:1006C00007D0282916D029293AD065707120F0BCAE
:1006D00070478178C07809020143618040488142B7
:1006E00002D04048814201D1002000E071201D70FD
:1006F000F0BC70478178427909060A43C1780679CF
:100700000904360231430A438179467A09060E43C9
:10071000C1790F04017A09020F433E43817AC07AFE
:100720000902014360460A2806D06260A660618023
:100730001D700020F0BC7047166065806560F7E7AB
:100740008478417924062143C47800792404000286
:10075000044321430868010E1170010C5170010A15
:100760009170D070042018700020F0BC704710B554
:1007700019491D4800F08FF800280ED11A48164C70
:10078000007810280AD0002060707020024661783E
:10079000164800F001F9FFF77AFF10BD144B134A19
:1007A00021781148FFF786FFF0E7000000200040A5
:1007B0004020004040240040000D02405A5A0000F2
:1007C000A5A500000000024000ED00E0800D024001
:1007D000800C0240000F024000000020E040FFFFBC
:1007E00030BF000020BF00001000002010010020DA
:1007F0000100002081480168042211430160016862
:1008000008221143016001681022114301607C48F5
:1008100001682022914301600168402399430160EF
:100820008168914381608168994381607047F0B429
:1008300000228027714D724E40236C68240708D433
:100840006C68640702D4F0BC612070476C682407B0
:10085000F6D549086C68E40601D5394301E049063C
:10086000490EB4681C43B4606C68240708D56C68F2
:10087000640702D4F0BC612070476C682407F6D48A
:10088000B4689C43B460521CD2B2082AD5D301701C
:10089000F0BC00207047F8B504460D46584FB868C4
:1008A00040218843B860554E7068400701D45120FC
:1008B000F8BD002028706846FFF7B9FF0146080020
:1008C00000D0F8BD68460078287068460078002897
:1008D00011D02046FFF7ABFF0146080003D00020EF
:1008E00028700846F8BD641C6A461078401EC0B2E5
:1008F00000900028EDD17068000707D470684007A9
:1009000001D46120F8BD70680007F7D5B8684022AF
:100910001043B8607068000707D57068400701D4BD
:100920006120F8BD70680007F7D40846F8BD70B4C0
:1009300000222026314B324C40255968090708D443
:100940005968490702D470BC60207047596809078C
:10095000F6D5C10703D0A1683143A16002E0A168C8
:10096000B143A1604008A1682943A1605968090703
:1009700008D55968490702D470BC6020704759688F
:100980000907F6D4A168A943A160521CD2B2082A73
:10099000D3D370BC00207047F7B505460C46184FFE
:1009A000B96840208143B960A01CC0B2FFF7BFFF07
:1009B000064630000CD1002C0AD02878FFF7B7FF8C
:1009C0000646002E04D16D1C641EE4B2002CF4D146
:1009D000002E02D19020FFF7AAFF002E02D102982C
:1009E000FFF7A5FFB96840208143B960B8682021AE
:1009F0008843B860304603B0F0BD0000C00D02402F
:100A0000800D0240334900200861704732490020C0
:100A10000861704731490020086170473049002063
:100A2000086170472F4841680822914341602E4871
:100A300041681022C906002903DA81689143816068
:100A400070478168114381607047284900204861E0
:100A5000274841684A070421002A03DA82688A434A
:100A60008260704782680A43826070471F49002095
:100A700048631F484168CA061021002A03DA8268C9
:100A80008A438260704782680A43826070471949CE
:100A900000204861164841688A062021002A03DAAE
:100AA00082688A438260704782680A438260704726
:100AB0001049002048630C484168CA061021002AEA
:100AC00003DA82688A438260704782680A438260E0
:100AD00070470000000E0240400E0240800E0240AF
:100AE000C00E024000140040400D0240000C0040C7
:100AF000C00D0240400C004003480047FEE7FEE7FF
:100B0000FEE7FEE7FEE7FEE7C100000004490348F8
:100B100008607047024901480860704740787D01CD
:100B20000C000020064C0125064E05E0E36807CCCA
:100B30002B430C3C98471034B442F7D3FFF7C4FA68
:100B4000680B0000880B000002E008C8121F08C1F3
:100B5000002AFAD170477047002001E001C1121F3E
:100B6000002AFBD170470000880B00000000002025
:100B700010000000480B0000980B0000100000203F
:100B800000040000580B00000000000000000000FE
:080B90000000000040787D0127
:04000005000000C136
:00000001FF
