:020000040000FA
:1000000010040020F90C0000FD0C0000FF0C0000A3
:1000100000000000000000000000000000000000E0
:10002000000000000000000000000000010D0000C2
:100030000000000000000000030D0000050D00009E
:10004000290A0000310A0000390A0000410A0000B4
:100050000000000000000000070D0000070D000078
:10006000070D000000000000070D00000000000068
:10007000070D0000000000006F0A0000910A000058
:10008000B30A0000D50A0000070D0000070D0000AC
:10009000070D0000070D0000070D0000490A0000D1
:1000A000070D000000000000070D0000070D000014
:1000B000070D000000000000070D0000070D000004
:1000C0000348854600F02EFE004800475B0500000F
:1000D00010040020F94C20680825A84320602068FF
:1000E000A8432060F64EF74FA0682843A060304632
:1000F00000F0ACFDA068A843A060384600F0A6FD63
:10010000F2E7F8B5411ECCB2002813D0EB4DEC4F0E
:100110000826A8683043A860384600F097FDA86814
:10012000B043A860E74800F091FD2046641EE4B2A9
:100130000028EED1F8BDE4490022CA60FF20086023
:100140000862E249CA6008600862704710B5FFF7AC
:10015000F2FF7D20C00000F079FDDB484068C0431D
:10016000C1B2DA484068C043C908400840010143B1
:10017000C8B210BD844696460022D54CD2432262B6
:10018000D44DEE6810273E43EE60EE6820273E43D4
:10019000EE60A06900090001A061CF4FA760CF4DBC
:1001A000A5602668082006432660A0694006FCD5A5
:1001B000A7602846A5602568302635432560A760DE
:1001C000A06020684008400020600020012902D083
:1001D000002902D002E0226200E02062614600298C
:1001E00005D1216A19432162BD49086130BF7046BB
:1001F000002800D0FEE7FEE7BA480F2141601E212B
:100200000160E12101607047B148416942159143A5
:1002100041614169490A4902EE3141614169032264
:10022000920211434161AC498160AC49816001682F
:100230000422114301604169C904FCD57047A548F7
:10024000C16810221143C160C16820221143C160FE
:100250009F48A1498160A14981600168082211433A
:10026000016081694906FCD5704799489A498160C7
:10027000FF2189314160016AC201114301629A483C
:1002800059218160026808231A430260C16023215A
:10029000016131218161062141611221C1619921F0
:1002A00001620021416281627F21C1620168C90847
:1002B000C900491C016001684022114301600168C6
:1002C000202211430160426880210A434260026893
:1002D0000A43026041680122114341604168890775
:1002E000FCD5416849084900416041688907FCD450
:1002F0007F497E484860704701227E49500408606B
:100300007D490868FF231B02984393031843086044
:100310006F48016A4315194301627848C16A302366
:1003200099432031C162C16A03151943C162C16A90
:100330009143C162C16A0906FCD5072149034162A4
:100340000162C16A02231943C162C16A1143C162D9
:10035000C16A1143C162704700225D49D2430A62FB
:100360001F38072828D202007A441279921897443D
:10037000030D13181B1E2100FFF761FF0020FFF77C
:10038000BBFFFFF772FFFFF737FF15E0FFF757FFDF
:100390000020FFF7B1FF0FE0FFF751FFFFF765FF08
:1003A0000AE0FFF74CFF07E0FFF72EFF04E0FFF73E
:1003B00023FF01E00020086249490420086130BFA2
:1003C00030BFFEE78446424DE868032464029B0781
:1003D000A0435B0D1843E860E8684005800F0328E0
:1003E00005D1E868400A4002FF306730E860E868FD
:1003F0004005800F022805D1E868400A4002FF301E
:100400006A30E860E8684005800F012805D1E86897
:10041000400A4002FF306830E860E8684005800F1D
:1004200005D1E868400A4002FF306630E8602A4E95
:10043000AE602A4FAF602B68012423432B60304B02
:10044000DC6A240C2404A419DC62DC6A240C240475
:10045000E019D8621C6A042004431C62E8680005A5
:10046000FCD5AE60AF602868302398432860164CF6
:100470002068102398432060224B032018612248F3
:1004800043680324A40223434360436801246403B4
:10049000234343600020C04328620023012902D087
:1004A000002902D002E0286200E02B6260460028AA
:1004B0002CD0012A2ED000BFFEE70000000D024024
:1004C000409C0000400D0300800D0240C00D024022
:1004D00000200040400D02405A5A0000A5A500002F
:1004E00000ED00E0800C004000140040F86F0000B8
:1004F0004020004080E200E010E400E0400C0040BA
:1005000000000240800C0240000F0240AE48036130
:1005100030BFFEE7FEE730B4AD48AC498160AD497D
:1005200081604168821511434160AB4A0020D06070
:10053000AA4BD860AA4DE860AA4CE060FF21116088
:10054000196029602160106218622862206251627D
:1005500059626962616230BC704700209C49C043A7
:100560000862A14841680822114341609F48416BDD
:10057000C909C9013131416397488168914381605C
:10058000016891430160FFF7C6FF7D20C00000F0C5
:100590005DFB00F061FB0122032311461046FFF7CB
:1005A00011FF84468C4CE06802221043E060E06852
:1005B00004263043E060864908690F231843086128
:1005C000086930273843086180488860814D8D6014
:1005D0000B6813430B60864B1A6A32431A620A692E
:1005E0005206FCD588608D600A68BA4310320A60F2
:1005F00088608D6008684008400008600020C043A3
:1006000008626046002802D16F49086130BF606807
:10061000000700D4FEE7FEE76D494A694B159A438F
:100620004A614A69920504D44A69520A5202EE327A
:100630004A614A69920504D54A69520A5202EE3269
:100640004A61624C8C60634B8B600A6804252A43C4
:100650000A604A69D204FCD58C608B600A68302538
:10066000AA4320320A600022D2430A628C608B6067
:100670000A68520852000A6059490A6810239A43CE
:100680000A605C4A032111615B494A68AB019A43E5
:100690004A604A6801235B031A434A60002802D17A
:1006A0004949086130BFFEE77047704753494868C1
:1006B000002801D08A6802604888514A801803D017
:1006C000102802D130BF00E020BF002048804860E1
:1006D0007047F0B48C464178484C0025202907D05B
:1006E000282916D029293AD065707120F0BC7047AE
:1006F0008178C0780902014361804248814202D07A
:100700004148814201D1002000E071201D70F0BC01
:1007100070478178427909060A43C178067909044D
:10072000360231430A438179467A09060E43C1797C
:100730000F04017A09020F433E43817AC07A09020D
:10074000014360460A2806D06260A66061801D7081
:100750000020F0BC7047166065806560F7E784781C
:10076000417924062143C47800792404000204431B
:1007700021430868010E1170010C5170010A91703B
:10078000D070042018700020F0BC704710B51B49D1
:100790001E4800F092F800280ED11C48174C007833
:1007A00010280AD000206070702002466178184836
:1007B00000F004F9FFF77AFF10BD164B144A2178B8
:1007C0001248FFF786FFF0E700ED00E05A5A0000FC
:1007D00000200040A5A50000000D0240400D024091
:1007E000800D0240C00D02404020004040240040E7
:1007F00000000240800C0240000F02400000002078
:10080000E040FFFF30BF000020BF000010000020CC
:1008100010010020010000208148016804221143DA
:100820000160016808221143016001681022114330
:1008300001607C48016820229143016001684023E7
:100840009943016081689143816081689943816027
:100850007047F0B400228027714D724E40236C68BF
:10086000240708D46C68640702D4F0BC6120704788
:100870006C682407F6D549086C68E40601D539434D
:1008800001E04906490EB4681C43B4606C68240753
:1008900008D56C68640702D4F0BC612070476C68AE
:1008A0002407F6D4B4689C43B460521CD2B2082A20
:1008B000D5D30170F0BC00207047F8B504460D4652
:1008C000584FB86840218843B860554E706840075B
:1008D00001D45120F8BD002028706846FFF7B9FF09
:1008E0000146080000D0F8BD6846007828706846C8
:1008F0000078002811D02046FFF7ABFF0146080022
:1009000003D0002028700846F8BD641C6A461078A1
:10091000401EC0B200900028EDD17068000707D4D7
:100920007068400701D46120F8BD70680007F7D5F2
:10093000B86840221043B8607068000707D5706837
:10094000400701D46120F8BD70680007F7D408465D
:10095000F8BD70B400222026314B324C4025596836
:10096000090708D45968490702D470BC6020704751
:1009700059680907F6D5C10703D0A1683143A160C2
:1009800002E0A168B143A1604008A1682943A160C9
:100990005968090708D55968490702D470BC602016
:1009A000704759680907F6D4A168A943A160521C91
:1009B000D2B2082AD3D370BC00207047F7B50546E1
:1009C0000C46184FB96840208143B960A01CC0B2E2
:1009D000FFF7BFFF064630000CD1002C0AD0287864
:1009E000FFF7B7FF0646002E04D16D1C641EE4B26B
:1009F000002CF4D1002E02D19020FFF7AAFF002E88
:100A000002D10298FFF7A5FFB96840208143B96081
:100A1000B86820218843B860304603B0F0BD0000BC
:100A2000C00D0240800D024033490020086170472C
:100A30003249002008617047314900200861704741
:100A400030490020086170472F48416808229143CF
:100A500041602E4841681022C906002903DA8168E6
:100A600091438160704781681143816070472849D4
:100A700000204861274841684A070421002A03DA18
:100A800082688A438260704782680A438260704746
:100A90001F49002048631F484168CA061021002AE8
:100AA00003DA82688A438260704782680A43826000
:100AB0007047194900204861164841688A0620217C
:100AC000002A03DA82688A438260704782680A4398
:100AD000826070471049002048630C484168CA068C
:100AE0001021002A03DA82688A4382607047826894
:100AF0000A43826070470000000E0240400E024030
:100B0000800E0240C00E024000140040400D024022
:100B1000000C0040C00D0240400C004010B5012107
:100B20000C07204600F0D9F80021204600F0D5F847
:100B300010BD70B400230125FF3001302A469A40D1
:100B40000C68144094423BD10C79012C01D0022C4A
:100B500008D1C46A9443C462C46A8E799E40B6B216
:100B60003443C4620C79002C06D0012C0BD0022C2B
:100B700013D0032C11D10DE0C4689443C460046801
:100B80001443046009E0C4689443C4600468944357
:100B9000046002E0C4681443C460CC79012C02D024
:100BA000022C07D00CE0046A94430462046A1443E4
:100BB000046205E0446A94434462446A1443446214
:100BC0005B1C082BBAD370BC70473549016000210B
:100BD0000171022242718171C1717047FF30013091
:100BE000002A03D082680A438260704782688A4381
:100BF00082607047FF3001308160704710B400237D
:100C0000284CA04203D18C1E072C1DD214E0264C88
:100C1000A04204D10C46103C112C15D20CE0234C00
:100C2000A04202D108290FD306E0214CA04203D1F3
:100C3000012909D0802907D0CC0703D149085B1CC2
:100C4000CC07FBD09900425010BC7047002802D05E
:100C5000401E0028FCD1704782B00121080700F037
:100C600031F8082000900120694608710020887141
:100C70000C4C2046FFF75DFF0E4D0F4E2346012220
:100C800008211846FFF7AAFF2846FFF7DFFF0022DA
:100C900008211846FFF7A2FF3046FFF7D7FFEDE720
:100CA000FFFF0000000C0240400C0240800C02409C
:100CB000C00C0240409C0000400D03000D490C4850
:100CC000086270470B4A002903D0116A0143116280
:100CD0007047116A814311627047064A002903D0A8
:100CE000916A014391627047916A814391627047B2
:100CF000000080C00020004003480047FEE7FEE7F8
:100D0000FEE7FEE7FEE7FEE7C100000004490348F6
:100D100008607047024901480860704740787D01CB
:100D20000C000020064C0125064E05E0E36807CCC8
:100D30002B430C3C98471034B442F7D3FFF7C4F967
:100D4000680D0000880D000002E008C8121F08C1ED
:100D5000002AFAD170477047002001E001C1121F3C
:100D6000002AFBD170470000880D00000000002021
:100D700010000000480D0000980D00001000002039
:100D800000040000580D00000000000000000000FA
:080D90000000000040787D0125
:04000005000000C136
:00000001FF
