:020000040000FA
:10000000100400209D0C0000A10C0000A30C0000B7
:1000100000000000000000000000000000000000E0
:10002000000000000000000000000000A50C00001F
:100030000000000000000000A70C0000A90C000058
:10004000A90B0000B10B0000B90B0000C10B0000B0
:100050000000000000000000AB0C0000AB0C000032
:10006000AB0C000000000000AB0C00000000000022
:10007000AB0C000000000000EF0B0000110C0000B2
:10008000330C0000550C0000AB0C0000AB0C000062
:10009000AB0C0000AB0C0000AB0C0000C90B000067
:1000A000AB0C000000000000AB0C0000AB0C00002B
:1000B000AB0C000000000000AB0C0000AB0C00001B
:1000C0000348854600F000FE004800471505000083
:1000D00010040020002802D0401E0028FCD17047E8
:1000E000FB4908680823984308600868984308603B
:1000F000F84CF94D8A681A438A602046FFF7EAFFF8
:100100008868984388602846FFF7E4FFF2E770B5F7
:10011000411EC9B2002814D0ED4AEE4DEE4E08241F
:100120009368234393602846FFF7D4FF9068A04369
:1001300090603046FFF7CEFF0846491EC9B200283E
:10014000EED170BDE5490022CA60FF200860086258
:10015000E349CA6008600862704700B5FFF7F2FF24
:100160007D20C000FFF7B6FFDC484068C043C1B245
:10017000DB484068C043C908400840010143C8B299
:1001800000BD844696460022D64CD2432262D64D0C
:10019000EE6810273E43EE60EE6820273E43EE6097
:1001A000A06900090001A061D04FA760D04DA560F3
:1001B0002668082006432660A0694006FCD5A76093
:1001C0002846A5602568302635432560A760A060D5
:1001D00020684008400020600020012902D000294A
:1001E00002D002E0226200E020626146002905D1CF
:1001F000216A19432162BF49086130BF7046002857
:1002000000D0FEE7FEE7BC480F2141601E210160DF
:10021000E12101607047B348416942159143416152
:100220004169490A4902E33141614169032292026D
:1002300011434161AD498160AD498160016804228B
:10024000114301604169C904FCD57047A648C168E3
:1002500010221143C160C16820221143C160A1482E
:10026000A2498160A24981600168082211430160AE
:1002700081694906FCD570479A489C498160FF21F5
:1002800089314160016AC201114301629B485921D1
:100290008160026808231A430260C1602321016162
:1002A00031218161062141611221C16199210162DF
:1002B0000021416281627F21C1620168C908C900D1
:1002C000491C01600168402211430160016820223D
:1002D00011430160426880210A43426002680A4378
:1002E0000260416801221143416041688907FCD5E1
:1002F000416849084900416041688907FCD4814947
:100300007F484860704701227F49500408607F4958
:100310000868FF231B029843930318430860714841
:10032000016A4315194301627948C16A3023994330
:100330002031C162C16A03151943C162C16A914388
:10034000C162C16A0906FCD5072149034162016205
:10035000C16A02231943C162C16A1143C162C16A01
:100360001143C162704700225E49D2430A621F38BE
:10037000072828D202007A44127992189744030D74
:1003800013181B1E2100FFF761FF0020FFF7BBFFC2
:10039000FFF772FFFFF737FF15E0FFF757FF002069
:1003A000FFF7B1FF0FE0FFF751FFFFF765FF0AE02E
:1003B000FFF74CFF07E0FFF72EFF04E0FFF723FFF6
:1003C00001E0002008624B490420086130BF30BFC3
:1003D000FEE7444DEC68032676029B07B4435B0DB1
:1003E0001C43EC60EB685B059B0F032B05D1EB68AE
:1003F0005B0A5B02FF336333EB60EB685B059B0FCB
:10040000022B05D1EB685B0A5B02FF336633EB60BE
:10041000EB685B059B0F012B05D1EB685B0A5B0268
:10042000FF336333EB60EB685B059B0F05D1EB6833
:100430005B0A5B02FF335D33EB602C4EAE602C4FEA
:10044000AF602B68012423432B60EB681B05FCD5B0
:10045000AE60AF602B683024A3432B600023DB43E6
:100460002B620024012902D0002902D002E02B6275
:1004700000E02C62002803D0012A05D000BFFEE76F
:100480001C48046130BFFEE7FEE730B41548174949
:1004900081601749816041688215114341600C4AAF
:1004A0000020D060104BD8600C4DE8600C4CE06030
:1004B000FF211160196029602160106218622862B2
:1004C0002062516259626962616230BC704700000B
:1004D000000D0240409C0000400D0300800D0240D2
:1004E000C00D024000200040400D02405A5A00005A
:1004F000A5A5000000ED00E0800C004000140040C5
:10050000F86F00004020004080E200E010E400E0CE
:10051000400C00400020FD49C0430862FC4841688F
:10052000082211434160FB48416BC909C9012031D0
:100530004163F9488168914381600168914301609A
:10054000FFF70BFE0446FFF7A0FF7D20C000FFF77A
:10055000C1FD262C7ED22000784400790018874403
:10056000DD12181E242A30363C42484E545A60662A
:100570006C727880868C92989EA4D1AAD7B0B6BCB3
:10058000BFC2C5C8CBCE0122002311461046FFF7DB
:1005900020FF002301211A460846FFF71AFF012316
:1005A0001A4619461846FFF714FF01230022194680
:1005B0001846FFF70EFF0122022311461046FFF7EF
:1005C00008FF0121022300220846FFF702FF012253
:1005D000032311461046FFF7FCFE012103230022EE
:1005E0000846FFF7F6FE0023012219461046FFF7E2
:1005F000F0FE00231A4619460120FFF7EAFE012308
:100600001A4600211846FFF7E4FE01230022114696
:100610001846FFF7DEFE0122022300211046FFF7F5
:10062000D8FE0022022311460120FFF7D2FE01224C
:10063000032300211046FFF7CCFE002203231146BE
:100640000120FFF7C6FE00231A4601211846FFF7D6
:10065000C0FE00E062E00123002219461046FFF7C9
:10066000B8FE0022022301211046FFF7B2FE00224D
:10067000032301211046FFF7ACFE00231A4619465A
:100680001846FFF7A6FE0022012311461046FFF789
:10069000A0FE0022022311461046FFF79AFE002218
:1006A000032311461046FFF794FE002301211A464A
:1006B0000846FFF766FD00231A4619460120FFF79A
:1006C00060FD0022954B11461046FFF75AFD0023AE
:1006D0001A4601211846FFF754FD1F20FFF743FE7D
:1006E0002020FFF740FE2120FFF73DFE2220FFF7EC
:1006F0003AFE2320FFF737FE2420FFF734FE2520A3
:10070000FFF731FE0122002311461046FFF739FDA5
:100710000023012219461046FFF733FDFFF7E0FCE6
:1007200084467D4CE06802221043E060E0680426C5
:100730003043E060754908690F2318430861086970
:1007400030273843086176488860764D8D600B68A5
:1007500013430B60744B1A6A32431A620A695206D9
:10076000FCD588608D600A68BA4310320A608860E0
:100770008D6008684008400008600020C04308629F
:100780006046002802D16949086130BF60680007EF
:1007900000D4FEE7FEE75D494A694B159A434A617A
:1007A0004A69920504D44A69520A5202E3324A6104
:1007B0004A69920504D54A69520A5202E4324A61F2
:1007C000574C8C60574B8B600A6804252A430A609B
:1007D0004A69D204FCD58C608B600A683025AA4334
:1007E00020320A600022D2430A628C608B600A6861
:1007F000520852000A604E490A6810239A430A6060
:100800004C4A032111614C494A68AB019A434A6042
:100810004A6801235B031A434A60002802D1434916
:10082000086130BFFEE770477047444948680028B8
:1008300001D08A6802604888414A801803D0102895
:1008400002D130BF00E020BF0020488048607047E0
:10085000F0B48C464178394C0025202907D028294E
:1008600016D029293AD065707120F0BC7047817884
:10087000C0780902014361803248814202D0324887
:10088000814201D1002000E071201D70F0BC704752
:100890008178427909060A43C1780679090436024B
:1008A00031430A438179467A09060E43C1790F0420
:1008B000017A09020F433E43817AC07A090201435B
:1008C00060460A2806D06260A66061801D70002024
:1008D000F0BC7047166065806560F7E78478417901
:1008E00024062143C47800792404000204432143F0
:1008F0000868010E1170010C5170010A9170D070DE
:10090000042018700020F0BC704700000020004058
:100910004020004040240040000D02400002100032
:100920005A5A0000A5A500000000024000ED00E0BA
:10093000800D0240800C0240000F024000000020A9
:10094000E040FFFF30BF000020BF000010B50E499F
:100950000E4800F072F800280ED10C480A4C0078BE
:1009600010280AD000206070702002466178084884
:1009700000F0E4F8FFF759FF10BD064B044A217858
:100980000248FFF765FFF0E700000020100000209C
:100990001001002001000020814801680422114359
:1009A00001600168082211430160016810221143AF
:1009B00001607C4801682022914301600168402366
:1009C00099430160816891438160816899438160A6
:1009D0007047F0B400228027714D724E40236C683E
:1009E000240708D46C68640702D4F0BC6120704707
:1009F0006C682407F6D549086C68E40601D53943CC
:100A000001E04906490EB4681C43B4606C682407D1
:100A100008D56C68640702D4F0BC612070476C682C
:100A20002407F6D4B4689C43B460521CD2B2082A9E
:100A3000D5D30170F0BC00207047F8B504460D46D0
:100A4000584FB86840218843B860554E70684007D9
:100A500001D45120F8BD002028706846FFF7B9FF87
:100A60000146080000D0F8BD684600782870684646
:100A70000078002811D02046FFF7ABFF01460800A0
:100A800003D0002028700846F8BD641C6A46107820
:100A9000401EC0B200900028EDD17068000707D456
:100AA0007068400701D46120F8BD70680007F7D571
:100AB000B86840221043B8607068000707D57068B6
:100AC000400701D46120F8BD70680007F7D40846DC
:100AD000F8BD70B400222026314B324C40255968B5
:100AE000090708D45968490702D470BC60207047D0
:100AF00059680907F6D5C10703D0A1683143A16041
:100B000002E0A168B143A1604008A1682943A16047
:100B10005968090708D55968490702D470BC602094
:100B2000704759680907F6D4A168A943A160521C0F
:100B3000D2B2082AD3D370BC00207047F7B505465F
:100B40000C46184FB96840208143B960A01CC0B260
:100B5000FFF7BFFF064630000CD1002C0AD02878E2
:100B6000FFF7B7FF0646002E04D16D1C641EE4B2E9
:100B7000002CF4D1002E02D19020FFF7AAFF002E06
:100B800002D10298FFF7A5FFB96840208143B96000
:100B9000B86820218843B860304603B0F0BD00003B
:100BA000C00D0240800D02403349002008617047AB
:100BB00032490020086170473149002008617047C0
:100BC00030490020086170472F484168082291434E
:100BD00041602E4841681022C906002903DA816865
:100BE0009143816070478168114381607047284953
:100BF00000204861274841684A070421002A03DA97
:100C000082688A438260704782680A4382607047C4
:100C10001F49002048631F484168CA061021002A66
:100C200003DA82688A438260704782680A4382607E
:100C30007047194900204861164841688A062021FA
:100C4000002A03DA82688A438260704782680A4316
:100C5000826070471049002048630C484168CA060A
:100C60001021002A03DA82688A4382607047826812
:100C70000A43826070470000000E0240400E0240AE
:100C8000800E0240C00E024000140040400D0240A1
:100C9000000C0040C00D0240400C004003480047DB
:100CA000FEE7FEE7FEE7FEE7FEE7FEE7C100000025
:100CB00004490348086070470249014808607047CA
:100CC00040787D010C000020064C0125064E05E011
:100CD000E36807CC2B430C3C98471034B442F7D35D
:100CE000FFF7F2F90C0D00002C0D000002E008C81F
:100CF000121F08C1002AFAD170477047002001E096
:100D000001C1121F002AFBD1704700002C0D00000A
:100D10000000002010000000EC0C00003C0D000062
:100D20001000002000040000FC0C00000000000087
:0C0D3000000000000000000040787D0181
:04000005000000C136
:00000001FF
